:020000040800F2
:1000000000900020357D0008954C00089D4C0008AC
:1000100000000000000000000000000000000000E0
:10002000000000000000000000000000A54C0008D7
:100030000000000000000000AF4C0008B94C0008B0
:10004000857D000800000000857D0008857D000892
:10005000857D0008857D0008857D0008857D000878
:1000600000000000857D0008857D0008857D000872
:10007000857D0008C54C0008857D00080000000053
:10008000857D0008857D0008857D0008857D000848
:10009000857D0008857D0008857D0008857D000838
:1000A000857D0008857D0008857D0008A54D000838
:0800B000AF4D0008BD4D000832
:1000B80010B5064C2378002B07D1054B002B02D036
:1000C800044800E000BF0123237010BD7002002027
:1000D8000000000028900008044B10B5002B03D046
:1000E8000349044800E000BF10BDC04600000000FE
:1000F8007402002028900008002243088B4274D321
:1001080003098B425FD3030A8B4244D3030B8B4210
:1001180028D3030C8B420DD3FF22090212BA030C19
:100128008B4202D31212090265D0030B8B4219D3FA
:1001380000E0090AC30B8B4201D3CB03C01A52411A
:10014800830B8B4201D38B03C01A5241430B8B4262
:1001580001D34B03C01A5241030B8B4201D30B034B
:10016800C01A5241C30A8B4201D3CB02C01A524172
:10017800830A8B4201D38B02C01A5241430A8B4235
:1001880001D34B02C01A5241030A8B4201D30B021E
:10019800C01A5241CDD2C3098B4201D3CB01C01A38
:1001A800524183098B4201D38B01C01A5241430942
:1001B8008B4201D34B01C01A524103098B4201D330
:1001C8000B01C01A5241C3088B4201D3CB00C01A9D
:1001D800524183088B4201D38B00C01A5241430815
:1001E8008B4201D34B00C01A5241411A00D201463A
:1001F800524110467047FFE701B5002000F0F0F8C3
:1002080002BDC0460029F7D076E7704703460B4386
:100218007FD4002243088B4274D303098B425FD3F7
:10022800030A8B4244D3030B8B4228D3030C8B4223
:100238000DD3FF22090212BA030C8B4202D3121209
:10024800090265D0030B8B4219D300E0090AC30BDE
:100258008B4201D3CB03C01A5241830B8B4201D38B
:100268008B03C01A5241430B8B4201D34B03C01A74
:100278005241030B8B4201D30B03C01A5241C30AEC
:100288008B4201D3CB02C01A5241830A8B4201D35D
:100298008B02C01A5241430A8B4201D34B02C01A47
:1002A8005241030A8B4201D30B02C01A5241CDD2EC
:1002B800C3098B4201D3CB01C01A524183098B4237
:1002C80001D38B01C01A524143098B4201D34B0120
:1002D800C01A524103098B4201D30B01C01A524183
:1002E800C3088B4201D3CB00C01A524183088B420A
:1002F80001D38B00C01A524143088B4201D34B00F3
:10030800C01A5241411A00D2014652411046704764
:100318005DE0CA0F00D04942031000D34042534069
:1003280000229C4603098B422DD3030A8B4212D329
:10033800FC22890112BA030A8B420CD3890192115B
:100348008B4208D3890192118B4204D389013AD098
:10035800921100E08909C3098B4201D3CB01C01A6D
:10036800524183098B4201D38B01C01A5241430980
:100378008B4201D34B01C01A524103098B4201D36E
:100388000B01C01A5241C3088B4201D3CB00C01ADB
:10039800524183088B4201D38B00C01A5241D9D2F3
:1003A80043088B4201D34B00C01A5241411A00D274
:1003B8000146634652415B10104601D34042002B70
:1003C80000D54942704763465B1000D3404201B5EF
:1003D800002000F005F802BD0029F8D016E77047A4
:1003E8007047C046844608006146FFE71FB500F025
:1003F800B9F9002801D40021C8421FBD10B500F08A
:1004080041F94042013010BD10B500F0ABF90028A9
:1004180001DB002010BD012010BDC04610B500F062
:10042800A1F9002801DD002010BD012010BDC04643
:1004380010B500F04FF9002801DC002010BD0120A4
:1004480010BDC04610B500F045F9002801DA0020BB
:1004580010BD012010BDC046F0B546464F46D646F1
:100468004502C0B5C30F470098460E1C6D0A3F0EE3
:100478005BD0FF2F21D08023ED00DB041D43002338
:1004880099469A467F3F74027300640A1B0EF60F62
:10049800002B20D0FF2B43D080220020E400D20480
:1004A80014437F3B4246FF1A4B4672400F2B00D93C
:1004B8009DE071499B00CB589F46002D5AD10823D7
:1004C8009946063B74029A467300FF27640A1B0E7E
:1004D800F60F002BDED1002C3BD1012342464946C2
:1004E800724019430E2918D86448890041588F462C
:1004F8005346022B00D1B8E0032B6ED042462C00A5
:10050800012B40D100200024C0052043D20710430E
:10051800E0BCBA46B146A846F0BDFF200024F3E788
:10052800002C20D10223FF3FD8E7002D05D104235A
:100538009946033B00279A46A5E7280000F0CEFD20
:100548007627431F9D4000237F4299469A463F1ACB
:1005580099E7200000F0C2FD431F9C4076235B42D0
:100568001B1A00209EE703234A461A43914603209C
:10057800FC3397E70C239946093BFF279A4682E705
:1005880003282CD0320038007F30002847DD63076D
:1005980004D00F232340042B00D00434230103D5B7
:1005A8003800374B80301C40FE28B6DCA401640AB2
:1005B800C0B2A9E780240022FF20E403A4E7802337
:1005C800DB031D4201D01C420BD08024E4032C43E2
:1005D80064024246FF20640A96E746462C008023C0
:1005E800DB031C4364023200FF20640A8CE76D01C0
:1005F800600185422DD21B230024013F01262900DA
:1006080064006D00002901DB854201D32D1A3443B3
:10061800013B002BF3D16B1E9D412C43B3E7012313
:100628001B1A1B2B00DD6DE721009E37D940BC400B
:100638000B00611E8C412343590704D00F21194038
:10064800042900D00433590113D49B0100205C0A0B
:100658005AE71A2301242D1AD0E7981E434258411D
:10066800404232000024C0B24EE74246FF20002438
:100678004AE70120002447E7F0910008309200087B
:10068800FFFFFFF770B542004E024C0045026D0AAD
:10069800120EC30F760A240EC90FFF2A10D0FF2CA2
:1006A8000CD00120A2420AD1B54208D18B420FD00A
:1006B800002A04D12800431E984100E0012070BDA3
:1006C8000120FF2CFBD13543F9D14B401800F6E748
:1006D8000020F4E730B5420044024D02C30F480041
:1006E800640A120E6D0A000EC90FFF2A18D0FF28DF
:1006F8000AD0002A1ED100280AD1002D29D0002CAA
:100708002DD14800013830BD002D25D1002A01D156
:10071800002CF6D08B4219D001205B421843F2E737
:10072800002C19D1FF28F7D1002D15D100208B42BC
:10073800F2D1E8E70028EFD08B42EDD18242EBDC22
:1007480004DBAC42E8D80020AC42DCD258000138C7
:10075800D9E7002CD7D0DFE702204042D3E78B420D
:10076800DAD1EEE730B5420044024D02C30F48002B
:10077800640A120E6D0A000EC90FFF2A17D0FF284F
:100788000AD0002A1BD100280AD1002D1DD0002C28
:100798002DD14800013811E0002D0ED1002A01D1D9
:1007A800002CF6D08B420CD15800013806E0002C02
:1007B80003D1FF2805D1002D15D0022030BD002817
:1007C80006D101205B421843F8E7002CF6D0F8E781
:1007D8008B42F6D18242F4DCE6DBAC42F1D8002051
:1007E800AC42EBD2E0E700208B42EAD1E6E78B424D
:1007F800E7D1F2E7F0B54F464646D6464400C0B5C5
:1008080046020F1C760A240EC50F002C00D1DAE030
:10081800FF2C74D08023F600DB041E430023994686
:100828009A467F3C7B025B0A98467B001B0EFF0FB3
:10083800002B74D0FF2B00D18EE042468021D200DD
:10084800C90411437F3B2A00E4184B467A40884686
:10085800D2B20A2B75DC4B460020022B0FDD49462D
:1008680001238B40A621C9000B4269D19021890040
:100878000B4200D000E18821194200D0F5E0414642
:100888000904090C43460800350C36041B0C360CC9
:10089800704369435E435D437618030C9B19994284
:1008A80003D9802149028C46654400041904000CD0
:1008B80009188E01701E86411B0C890E5B190E43A8
:1008C8009B011E431B016CD423007F33002B00DCEB
:1008D800B1E0150071070BD00F202100304004282B
:1008E80006D00436320103D56E4B1E400B00803310
:1008F800FE2B00DDBDE0B201520ADBB248E0002E5B
:1009080000D092E008239946063B9A467B025B0A90
:1009180098467B00FF241B0EFF0F002B8AD142460E
:10092800002A64D149460132114389460A2908DC64
:100938007D400120EAB2022991DC1500002227E05F
:1009480015005346022B00D193E0032B1AD0012B3C
:100958002CD1002300221BE04346FF34002B55D046
:1009680003214B460B4319000A2B00DC92E00F2BA6
:1009780000D08CE08022D203164203D043461342B3
:1009880000D17DE08022D20332435202520AFF2373
:10099800D805ED0710432843E0BCBA46B146A8463F
:1009A800F0BD0123150071081E400E43230080335B
:1009B800611C002B41DD720794D00F223240042ABB
:1009C80000D08EE78EE7002E05D104239946033B1D
:1009D80000249A4626E7300000F080FB7624431F67
:1009E8009E400023644299469A46241A1AE74046D4
:1009F80000F074FB4B46241A763C0A2BA1DC4346D4
:100A0800053883407D409846EAB224E74A460233D7
:100A180013432A007A40D2B20A2B92DC49461500C9
:100A2800002926D09946022019E70C239946093B4C
:100A3800FF249A46F6E6150021000122D31A1B2B43
:100A480000DD86E79E3132008E40DA40731E9E41FB
:100A58003243530704D00F231340042B00D0043231
:100A6800530110D50123002292E73D0046468246F5
:100A780067E7FF2300228BE780220025D20386E761
:100A88003D001A4383E792010023520A80E73D00A4
:100A9800464677E72A0001237A408B400320D2B2EA
:100AA800E9E6C046FFFFFFF7F8B54746CE464302E2
:100AB80080B55F0A9B0945004A009C464B02C40F5B
:100AC800CE0F2D0E580A120E9909FF2A6BD001235A
:100AD8005E40AB1AB4424BD0002B00DCFFE0002A8A
:100AE80000D188E0FF2D00D1EFE08022D20411432D
:100AF80001201B2B08DC08002022D840D31A99407B
:100B08000B005A1E9341184363461B1A9C466346C2
:100B18005B0100D4CDE063469F01BF09380000F0B7
:100B2800DDFA3B0005388340854200DCA2E0B74A85
:100B38002D1A1A4094465A0700D1C3E00F221340D9
:100B4800042B00D1BEE004239846C44463465B01ED
:100B580000D4B7E0681CFE2D00D0A5E0FF200022DD
:100B6800C0051043E4072043C0BCB946B046F8BDF1
:100B7800002B00DCEBE1002A46D0FF2D00D1A4E0D9
:100B88008022D20411431B2B00DCFBE0052398468E
:100B98002B00C4446246D708FF2B00D195E07A02A7
:100BA800520AD8B2DCE72B00FF3B9946002918D13E
:100BB80001235E40B44200D1CAE04B46002B2DD041
:100BC800002D00D03CE1FF236446002C00D15FE1FA
:100BD8005D1E012B00D174E13400FF2B74D02B0073
:100BE80003E1B44200D19CE0002B17D0002DEAD0DD
:100BF800070034006CE00029CCD05A1E012B2BD002
:100C0800FF2B62D0130073E70029C3D05A1E012BB3
:100C180000D11EE1FF2B58D01300B4E7FE226B1C55
:100C28001A420DD1002D60D06346002B00D020E180
:100C3800002900D028E180220024FF20D2038FE77A
:100C480063465F1A7B0100D5FEE0002F00D065E700
:100C580000240020002283E76346591A4B0100D480
:100C680019E18F01BF09380000F038FA3B00053858
:100C7800834001252022401B0130121A190093409D
:100C8800C1405A1E934119438C460B1EE1D05B07A5
:100C980000D152E10F2300250B40042B00D052E76E
:100CA80001204A0100D492E0C0B263469A01520A78
:100CB80056E763465B0705D00F2362461340042BB3
:100CC80000D040E72B0065E70700002F00D145E77B
:100CD8008022D2033A435202FF20520A40E7002BF7
:100CE80079D1FE226B1C1A42AAD16346002B00D18F
:100CF800F5E0002900D1D1E05F1A8023DB041F4210
:100D080000D10EE1624601248A1A9446002034403C
:100D1800002A00D124E701201A42C6D10023D708AF
:100D28003DE7002B17D0002D00D0AFE0FF2365462C
:100D3800002D00D1ADE05E1E012B00D189E0FF2B14
:100D4800C2D01B2E00DCABE04B1D9C46130021E7F4
:100D58004B46002B70D1FE226B1C1A425ED1002D2F
:100D680000D0C3E06346002B00D1D0E0002900D1B9
:100D780094E00A006244530100D4D8E092010120B3
:100D8800520AEDE608002022D840D31A99400B00F9
:100D98005A1E934103439C4463465B0189D5013540
:100DA800FF2D00D1DAE662460123194913405208A3
:100DB8000A401A43130094465B0704D00F231340DC
:100DC800042B00D0BFE663465B0100D5C2E663464C
:100DD800DF082B00E3E6531B002D00D1F4E680204A
:100DE8006446C0040443A446340001201B2B09DCDC
:100DF80020256046D840EB1A65469D402B005D1EB5
:100E0800AB4118430B1A9C46150080E6FFFFFFFB19
:100E1800FFFFFF7DFE226B1C1342A3D0FF2B00D1E6
:100E28009CE6614449084A0749D00F220A40042A2F
:100E380045D00A1D9446ADE6002D00D176E78DE633
:100E48003400FF2000228BE663460124CF1A344089
:100E580064E661444B016DD54808444901404307A5
:100E68002CD00F230340042B28D00B1D9C460223B3
:100E780090E6002900D12BE78023DB039F4200D2B4
:100E880026E7984200D323E70124344007001FE7F0
:100E980034008C467EE60123CF0880E600237EE6F8
:100EA80020206546801B854063462800F340451E88
:100EB800A84103439C4615008C446DE70223CF08E4
:100EC8006DE60F1B7B0128D5BF01BF09380000F074
:100ED80005F93B000538834034000125CAE600299E
:100EE80000D1B5E601240700344058E66346002BDC
:100EF80000D1E9E6002900D1EAE68023DB039F421E
:100F080000D2E5E6984200D3E2E60700E0E60029D1
:100F180000D19EE60023CF0841E634000123FF08F4
:100F28003DE6002F00D193E60023FF0837E60023B3
:100F3800D70834E60123CF0831E680220B00D2041B
:100F480001201340114200D0AEE6CF0827E6002B5F
:100F580000D15FE7561B002D01D13300E7E680235F
:100F68006046DB0418438446EBE6C046FFFFFF7D7E
:100F780041024200C30F490A0020120E7E2A03DDF7
:100F88009D2A02DD094A9818704780200004014311
:100F9800952A07DC9620821AD1404842002BF3D1CB
:100FA8000800F1E7963A9140F7E7C046FFFFFF7F58
:100FB80070B5002812D0C317C5185D40C40F2800AB
:100FC80000F08CF89E231B1A962B0FDC082838D0CB
:100FD800083885406D026D0AD8B202E0002400206E
:100FE8000025C0052843E407204370BD992B14DC75
:100FF800421F95402A001549114055071CD00F255E
:101008002A40042A18D00431CA08490115D59F235B
:101018005202181A550AC0B2E3E705222900121A2B
:10102800D14002001B3295402A00551EAA410A43AE
:10103800064911405507E2D1CA085202550AD8B2EA
:10104800CFE76D026D0A8E30CBE7C046FFFFFFFB8E
:1010580010B5041E0DD000F041F89E231B1A962BE4
:101068000CDC082834D0083884406402640AD8B2FA
:1010780001E000200024C005204310BD992B13DC9B
:10108800421F9440144A224061071CD00F2121407E
:10109800042918D00432D408520115D59F236402BC
:1010A800181A640AC0B2E6E7020021001B32914018
:1010B8000A00511E8A410521091ACC401443064AE8
:1010C80022406107E2D1D4086402640AD8B2D2E7A8
:1010D8006402640A8E30CEE7FFFFFFFB1C21012368
:1010E8001B04984201D3000C10391B0A984201D303
:1010F800000A08391B09984201D30009043902A2E1
:10110800105C40187047C046040302020101010147
:10111800000000000000000080B584B000AF7860D7
:1011280039607B685B69FB60FB683A6813401A04A6
:10113800FB68DB4339680B401A437B689A61C046F9
:10114800BD4604B080BD000080B584B000AF012169
:10115800012001F023FD0023FB6013E0BE4BDB8878
:101168001BB21900BD4A0B009B005B185B00D2182C
:10117800FB68D3181B780121180001F0B9FDFB6842
:101188000133FB60FB68072BE8DDB54B180001F065
:1011980063FEB14BDB881BB2092B37D1AE4BDB8822
:1011A8001BB21A00AF4B5200D35A9BB21800FFF77C
:1011B800FFFEA94BDB881BB21A00AB4B9200D35839
:1011C800191CFFF717FB031C191CA848FFF744F963
:1011D800031C7B60A6497868FFF72AF9031E0CD028
:1011E800A4497868FFF710F9031E06D07B6802222D
:1011F8000321181C01F013FDCFE000237B607B68FE
:1012080002220321181C01F00AFDC6E0924BDB887C
:101218001BB2062B3CD1904BDB881BB21A00914BBA
:101228005200D35A9AB2944B1B889BB29A420CD361
:10123800894BDB881BB21A008A4B5200D35A9AB2E8
:101248008E4B1B889BB29A4206D9002302220321A7
:10125800181C01F0E4FCA0E07F4BDB881BB21A00ED
:10126800804B5200D35A9BB21800FFF7A1FE7A4B6D
:10127800DB881BB21A007C4B9200D358191CFFF76D
:10128800B9FA031C02220321181C01F0C8FC84E0EF
:10129800714BDB881BB2072B2FD16F4BDB881BB23E
:1012A8001A00704B5200D35A9AB2754B1B889BB2E6
:1012B8009A4206D9002302220321181C01F0AFFC30
:1012C8006BE0654BDB881BB21A00664B5200D35AA1
:1012D8009BB21800FFF76CFE5F4BDB881BB21A004D
:1012E800614B9200D358191CFFF784FA031C0222A1
:1012F8000321181C01F093FC4FE0574BDB881BB20D
:101308000A2B2FD1544BDB881BB21A00554B5200C5
:10131800D35A9AB25B4B1B889BB29A4206D90023D8
:1013280002220321181C01F07AFC36E04A4BDB88C4
:101338001BB21A004B4B5200D35A9BB21800FFF74E
:1013480037FE454BDB881BB21A00474B9200D35837
:10135800191CFFF74FFA031C02220321181C01F085
:101368005EFC1AE03C4BDB881BB21A003D4B520076
:10137800D35A9BB21800FFF71BFE374BDB881BB212
:101388001A00394B9200D358191CFFF733FA031C83
:1013980002220321181C01F042FC0121022001F065
:1013A800FDFB0023BB6013E02B4BDB881BB25A1CF0
:1013B8002A4913009B009B185B00CA18BB68D31806
:1013C8001B780121180001F093FCBB680133BB6056
:1013D800BB68072BE8DD224B180001F03DFD1E4BD2
:1013E800DB881BB2082B53D11B4BDB881BB25A1C62
:1013F8001C4B5200D35A9BB21800FFF7D9FD164B6D
:10140800DB881BB25A1C184B9200D358191CFFF7E3
:10141800F1F9031C191C1548FFF71EF8031C3B6063
:1014280019493868FFF704F8031E0CD017493868C3
:10143800FEF7EAFF031E06D03B6802220321181CB0
:1014480001F0EDFBECE000233B603B680222032146
:10145800181C01F0E4FBE3E0940400206C920008FF
:1014680040900008E40200208C0200200024F44987
:1014780000003042000060426C0200206A02002036
:101488006E020020680200200000344200005C4226
:10149800654BDB881BB2052B3CD1634BDB881BB249
:1014A8005A1C624B5200D35A9AB2614B1B889BB2AA
:1014B8009A420CD35C4BDB881BB25A1C5B4B520024
:1014C800D35A9AB25B4B1B889BB29A4206D9002327
:1014D80002220321181C01F0A2FBA1E0524BDB8879
:1014E8001BB25A1C514B5200D35A9BB21800FFF73B
:1014F8005FFD4D4BDB881BB25A1C4F4B9200D358F3
:10150800191CFFF777F9031C02220321181C01F0AC
:1015180086FB85E0444BDB881BB2062B2FD1424B60
:10152800DB881BB25A1C414B5200D35A9AB2434B28
:101538001B889BB29A4206D9002302220321181C59
:1015480001F06DFB6CE0384BDB881BB25A1C374B43
:101558005200D35A9BB21800FFF72AFD324BDB88A2
:101568001BB25A1C344B9200D358191CFFF742F98E
:10157800031C02220321181C01F051FB50E02A4BE6
:10158800DB881BB2092B2FD1274BDB881BB25A1CD7
:10159800264B5200D35A9AB2294B1B889BB29A42C7
:1015A80006D9002302220321181C01F038FB37E07A
:1015B8001D4BDB881BB25A1C1C4B5200D35A9BB2E2
:1015C8001800FFF7F5FC184BDB881BB25A1C1A4BA6
:1015D8009200D358191CFFF70DF9031C02220321AE
:1015E800181C01F01CFB1BE00F4BDB881BB25A1CBC
:1015F8000E4B5200D35A9BB21800FFF7D9FC0A4B86
:10160800DB881BB25A1C0C4B9200D358191CFFF7ED
:10161800F1F8031C02220321181C01F000FBFFE76C
:10162800C046BD4604B080BD94040020E4020020FA
:101638006C0200206A0200208C0200206E0200204A
:101648006802002080B500AF0121012001F0A6FA50
:10165800054B180001F000FCFA239B00180001F06C
:101668006DFAC046BD4680BD4490000880B582B082
:1016780000AF0121012001F091FA00237B6013E003
:101688000D4B1B891BB219000C4A0B009B005B1801
:101698009B00D2187B68D3181B780121180001F031
:1016A80027FB7B6801337B607B68072BE8DDC0463E
:1016B800C046BD4602B080BD94040020489300088F
:1016C80080B582B000AF0121012001F067FA002344
:1016D8007B600AE0094A7B68D3181B78012118004F
:1016E80001F006FB7B6801337B607B68072BF1DD2B
:1016F800C046C046BD4602B080BDC046AC93000897
:1017080080B582B000AF0121012001F047FA002323
:101718007B6013E0C94B9B891BB21900C84A0B00B8
:101728009B005B185B00D2187B68D3181B780121DB
:10173800180001F0DDFA7B6801337B607B68072BBA
:10174800E8DDC04B180001F087FBBC4B9B891BB23E
:10175800012B3CD1B94B9B891BB21A00BA4B5200E2
:10176800D35A9AB2B94B1B889BB29A420CD3B34B4B
:101778009B891BB21A00B44B5200D35A9AB2B44B8D
:101788001B889BB29A4206D9002302220321181C07
:1017980001F045FAEFE0A94B9B891BB21A00AA4B4E
:1017A8005200D35A9BB21800FFF702FCA34B9B8947
:1017B8001BB21A00A74B9200D358191CFFF71AF84E
:1017C800031C02220321181C01F029FAD3E09B4BC9
:1017D8009B891BB2022B3CD1984B9B891BB21A00E8
:1017E800994B5200D35A9AB29B4B1B889BB29A4290
:1017F8000CD3924B9B891BB21A00934B5200D35ABD
:101808009AB2964B1B889BB29A4206D900230222B1
:101818000321181C01F003FAADE0884B9B891BB229
:101828001A00894B5200D35A9BB21800FFF7C0FB2D
:10183800824B9B891BB21A00864B9200D358191C05
:10184800FEF7D8FF031C02220321181C01F0E7F958
:1018580091E07A4B9B891BB2032B2FD1774B9B8945
:101868001BB21A00784B5200D35A9AB27C4B1B8891
:101878009BB29A4206D9002302220321181C01F0C8
:10188800CEF978E06D4B9B891BB21A006E4B520063
:10189800D35A9BB21800FFF78BFB684B9B891BB28E
:1018A8001A006C4B9200D358191CFEF7A3FF031CB7
:1018B80002220321181C01F0B2F95CE05F4B9B89FE
:1018C8001BB2072B3CD15D4B9B891BB21A005E4BA8
:1018D8005200D35A9AB2634B1B889BB29A420CD3DC
:1018E800564B9B891BB21A00574B5200D35A9AB2D7
:1018F8005D4B1B889BB29A4206D900230222032122
:10190800181C01F08CF936E04C4B9B891BB21A006D
:101918004D4B5200D35A9BB21800FFF749FB474B77
:101928009B891BB21A004B4B9200D358191CFEF727
:1019380061FF031C02220321181C01F070F91AE050
:101948003E4B9B891BB21A003F4B5200D35A9BB2A5
:101958001800FFF72DFB394B9B891BB21A003D4B32
:101968009200D358191CFEF745FF031C02220321DD
:10197800181C01F054F90121022001F00FF900238D
:101988003B6012E02D4B9B891BB21900374A0B00B4
:101998001B015B1AD2183B68D3181B780121180069
:1019A80001F0A6F93B6801333B603B68072BE9DD92
:1019B800244B180001F050FA204B9B891BB2012BD5
:1019C80058D11E4B9B891BB21A00294B5200D35A7F
:1019D8009AB21E4B1B889BB29A420CD3174B9B8919
:1019E8001BB21A00224B5200D35A9AB2184B1B88CA
:1019F8009BB29A4206D9002302220321181C01F047
:101A08000EF90CE10D4B9B891BB21A00184B5200C2
:101A1800D35A9BB21800FFF7CBFA084B9B891BB22D
:101A28001A000C4B9200D358191CFEF7E3FE031C56
:101A380002220321181C01F0F2F8F0E094040020BF
:101A4800B8930008409000080000002062020020BF
:101A58006002002018980008660200206402002036
:101A68006E0200206C0200206A02002030940008F8
:101A7800180000206C4B9B891BB2022B3CD16A4B8F
:101A88009B891BB21A00694B5200D35A9AB2684B11
:101A98001B889BB29A420CD3634B9B891BB21A00DA
:101AA800624B5200D35A9AB2624B1B889BB29A423D
:101AB80006D9002302220321181C01F0B0F8AEE079
:101AC800594B9B891BB21A00584B5200D35A9BB2F0
:101AD8001800FFF76DFA544B9B891BB21A00564B3E
:101AE8009200D358191CFEF785FE031C022203211D
:101AF800181C01F094F892E04B4B9B891BB2032B06
:101B08002FD1494B9B891BB21A00484B5200D35A1C
:101B18009AB24A4B1B889BB29A4206D900230222EA
:101B28000321181C01F07BF879E03F4B9B891BB21D
:101B38001A003E4B5200D35A9BB21800FFF738FAEE
:101B4800394B9B891BB21A003B4B9200D358191C86
:101B5800FEF750FE031C02220321181C01F05FF857
:101B68005DE0314B9B891BB2072B3CD12E4B9B89E7
:101B78001BB21A002D4B5200D35A9AB2304B1B8815
:101B88009BB29A420CD3284B9B891BB21A00274B55
:101B98005200D35A9AB22B4B1B889BB29A4206D951
:101BA800002302220321181C01F039F837E01E4BEC
:101BB8009B891BB21A001D4B5200D35A9BB21800C6
:101BC800FFF7F6F9184B9B891BB21A001A4B9200C3
:101BD800D358191CFEF70EFE031C02220321181C01
:101BE80001F01DF81BE0104B9B891BB21A000F4B2C
:101BF8005200D35A9BB21800FFF7DAF90A4B9B89B7
:101C08001BB21A000C4B9200D358191CFEF7F2FDB8
:101C1800031C02220321181C01F001F8FFE7C0464B
:101C2800BD4602B080BDC0469404002018000020C4
:101C38006602002064020020189800086E02002046
:101C48006C0200206A02002080B582B000AF01213A
:101C5800012000F0A3FF00237B6013E01E4BDB890B
:101C68001BB219001D4A0B009B005B189B00D21881
:101C78007B68D3181B780121180001F039F87B68BC
:101C880001337B607B680E2BE8DD0121022000F028
:101C980085FF134B180001F0DFF80F4BDB891BB2EF
:101CA8001A00104B5200D35A9BB21800FFF780F964
:101CB800094BDB891BB21A000B4B9200D358191C35
:101CC800FEF798FD031C02220321181C00F0A7FF51
:101CD800C046BD4602B080BD94040020E4940008CC
:101CE800409000089C0000204898000880B500AF8C
:101CF8000121012000F052FF034B180001F0ACF85D
:101D0800C046BD4680BDC0465490000880B500AFAF
:101D18000121012000F042FF054B180001F09CF85A
:101D2800FA239B00180000F009FFC046BD4680BD9D
:101D38006090000880B500AF0121012000F02EFF5F
:101D4800034B180001F088F8C046BD4680BDC04668
:101D58006C90000880B500AF034B180001F07CF8C8
:101D6800C046BD4680BDC0467C90000880B500AF27
:101D7800054B180001F070F8FA23DB00180000F09A
:101D8800DDFEC046BD4680BD9090000880B582B09B
:101D980000AF0121012000F001FF00237B6013E068
:101DA800144B5B8A1BB21900134A0B009B005B188B
:101DB8005B00D2187B68D3181B780121180000F04B
:101DC80097FF7B6801337B607B68072BE8DD0B4B53
:101DD800180001F041F8074B5B8A1BB21A00084B48
:101DE8009B5C5BB20221180001F077F8C046BD4643
:101DF80002B080BD9404002090980008A0900008CC
:101E08006403002080B500AF0121012000F0C6FE68
:101E1800284B180001F020F8274B180001F01CF897
:101E2800264B9B785BB20221180001F056F8244B30
:101E3800180001F011F8214B5B785BB20221180001
:101E480001F04BF81E4B180001F006F81B4B1B78ED
:101E58005BB20221180001F040F80121022000F0D5
:101E68009DFE184B180000F0F7FF134B180000F008
:101E7800F3FF124BDB785BB20221180001F02DF85A
:101E88000F4B180000F0E8FF0C4B1B795BB20221E6
:101E9800180001F022F80A4B180000F0DDFF074B8C
:101EA8005B795BB20221180001F017F8C046BD4605
:101EB80080BDC046A4900008AC90000864030020D0
:101EC800B0900008B490000880B500AF244B1B68A0
:101ED800012B13D10121012000F060FEA023DB05B6
:101EE80040211800FFF718F91E4B180000F0B4FF46
:101EF800FA23DB00180000F021FE2EE0184B5B6887
:101F0800012B13D10121012000F048FE164B1800C7
:101F180000F0A2FFA023DB0540211800FFF7FCF822
:101F2800FA23DB00180000F009FE16E00C4B9B6852
:101F3800012B12D10121012000F030FEA023DB0586
:101F480040211800FFF7E8F8084B180000F084FF5C
:101F5800FA23DB00180000F0F1FDC046BD4680BD45
:101F6800FC040020BC900008D0900008E490000811
:101F780080B500AF154B00221A60144B144A5A6002
:101F8800124B144A9A60114B134ADA600F4B134AEA
:101F98001A610E4B124A5A610C4B124A9A610B4B4A
:101FA8000D4ADA61094B00221A62084BFE2292059B
:101FB8005A62064B0C4A9A62044B094ADA62034B8E
:101FC800074A1A63C046BD4680BDC0468C02002041
:101FD800B81E853E9CA73A3E7F6ABC3C1AA88C3C3A
:101FE8000AD7233C46B6F33D26AA373C80B500AF56
:101FF8001B4B1B68DB07DB0FDBB2012B2DD1184B0A
:102008001A7801218A431A70154B1A7810218A43CD
:102018001A70144B00229A80124B5022DA8000F07A
:1020280031FB114B4F21180004F014FF03001A0074
:102038000E4B1A700C4B1B78DBB2532B0DD00A4B8E
:102048004F229B5CDAB2094B1B78DBB29A4204D070
:10205800034B1A7810210A431A70C046BD4680BD4A
:102068006C030020740300208C0300207003002000
:1020780080B500AF0B4B1B689B07DB0FDBB2012B56
:102088000CD1084B1A7802218A431A70064B002299
:102098009A80054B5022DA8000F0E6FBC046BD4628
:1020A80080BDC0466C0300207403002080B500AFDB
:1020B8000D4B1B685B07DB0FDBB2012B11D10A4B01
:1020C8001A7804218A431A70074B1A7810218A4318
:1020D8001A70064B80229A80044B8022DA8000F026
:1020E800D1FAC046BD4680BD6C03002074030020B1
:1020F80080B500AF0E4B1B681B07DB0FDBB2012B53
:1021080012D10B4B1A7808218A431A70094B5B7855
:10211800DBB210339BB2DB009AB2074B9A80064BB6
:102128000822DA8000F0A0FBC046BD4680BDC0464C
:102138006C030020700300207403002080B582B077
:1021480000AF786039607B685B68054A1A403B6875
:102158001A437B685A60C046BD4602B080BDC0467F
:10216800FFF7FFFF80B582B000AF78607B689B699E
:1021780001221340012B01D1012300E000231800A4
:10218800BD4602B080BD80B582B000AF78607B6884
:102198009B6902221340022B01D1012300E0002396
:1021A8001800BD4602B080BD80B582B000AF78602F
:1021B8007B689B6904221340042B01D1012300E0B2
:1021C80000231800BD4602B080BD000080B582B073
:1021D80000AF78607B685B68034A1A407B685A6086
:1021E800C046BD4602B080BDFFFFFFFD80B582B08E
:1021F80000AF786039607B685B68054A1A403B68C5
:102208001B041A437B685A60C046BD4602B080BDB5
:10221800FFFF00FF80B582B000AF78607B685B6825
:102228008022D2011A437B685A60C046BD4602B07C
:1022380080BD80B582B000AF786039607B685B682C
:102248009B0A9A023B681A437B685A60C046BD469F
:1022580002B080BD80B582B000AF78607B685B6AF1
:10226800DBB21800BD4602B080BD80B582B000AFB9
:1022780078600A00FB1C1A70FB1C1A787B689A624B
:10228800C046BD4602B080BD80B582B000AF786060
:102298000A00FB1C1A70104B7A681A610E4BFA1C64
:1022A80012781A700C4B0D4A5A810B4B5B899AB203
:1022B800094B1A81084B00221A73074B0A225A73DA
:1022C800054B00229A73044B1B691800FFF77EFF29
:1022D800C046BD4602B080BD74030020E02E000059
:1022E80090B585B000AF0200BB1D1A800F23FB1804
:1022F80000221A706B4B5B899AB26A4B1A81C046EE
:10230800684B1B899BB25A1E91B2664A1181002BF9
:10231800F6D1BB1D1B889BB2DAB2624B9A70BB1D0B
:102328001B889BB21B0A9BB2DAB25E4B5A705D4B9C
:102338001A695C4B1B78DBB219001000FFF779FFB4
:10234800584B1B695A6858490A405A60554B1B69D3
:1023580000211800FFF7F2FE524B1B6902211800FA
:10236800FFF744FF4F4B1B695A68802189010A43D4
:102378005A604C4B00221A730CE04A4B01229A73A4
:10238800484B1B7BDAB2474B5B7BDBB29A4201D3EB
:10239800FF2382E0434B1B691800FFF7E3FE0300AD
:1023A800012BEAD13F4B00229A733E4B00221A734D
:1023B8003C4B1A693B4B5B78DBB219001000FFF706
:1023C80054FF384B00221A730CE0364B01229A73E3
:1023D800344B1B7BDAB2334B5B7BDBB29A4201D3C3
:1023E800FF235AE02F4B1B691800FFF7BBFE0300C1
:1023F800012BEAD12B4B00229A732A4B00221A7325
:10240800284B1A69274B9B78DBB219001000FFF79D
:102418002CFF244B1B695A688021C9000A435A6063
:10242800204B1B6901211800FFF7E0FE1D4B1B69BB
:102438005A68802189010A435A601A4B00221A738C
:102448000CE0184B01229A73164B1B7BDAB2154B22
:102458005B7BDBB29A4201D3FF231EE0114B1B6961
:102468001800FFF7A1FE031EEBD00E4B00229A7353
:102478000C4B00221A730B4B1B691800FFF7EAFE7E
:1024880003001A000F243B191A70064B1B69180029
:10249800FFF7C0FE3B191B78DBB21800BD4605B03C
:1024A80090BDC04674030020FFFBFFFF80B582B0DB
:1024B80000AF0200BB1D1A807B1D0A1C1A706F4BEF
:1024C8005B899AB26D4B1A81C0466C4B1B899BB2D3
:1024D8005A1E91B2694A1181002BF6D1BB1D1B8887
:1024E8009BB2DAB2654B9A70BB1D1B889BB21B0A64
:1024F8009BB2DAB2614B5A70604B1A695F4B1B781A
:10250800DBB219001000FFF794FE5C4B1B695A6898
:102518005B490A405A60594B1B6900211800FFF7B4
:102528000DFE564B1B6903211800FFF75FFE534B46
:102538001B695A68802189010A435A604F4B00225F
:102548001A730AE04D4B01229A734C4B1B7BDAB28B
:102558004A4B5B7BDBB29A4208D2484B1B69180096
:10256800FFF711FE0300012BECD100E0C046434BFE
:1025780000229A73414B00221A73404B1A693F4B51
:102588005B78DBB219001000FFF76FFE3B4B0022AF
:102598001A730AE0394B01229A73384B1B7BDAB263
:1025A800364B5B7BDBB29A4208D2344B1B6918006E
:1025B800FFF7E9FD0300012BECD100E0C0462F4BEB
:1025C80000229A732D4B00221A732C4B1A692B4B3D
:1025D8009B78DBB219001000FFF747FE274B00225B
:1025E8001A730AE0254B01229A73244B1B7BDAB23B
:1025F800224B5B7BDBB29A4208D2204B1B69180046
:10260800FFF7C1FD0300012BECD100E0C0461B4BD6
:1026180000229A73194B00221A73184B1A697B1DF2
:102628001B78DBB219001000FFF71FFE134B0022C6
:102638001A730AE0114B01229A73104B1B7BDAB212
:102648000E4B5B7BDBB29A4208D20C4B1B6918001D
:10265800FFF788FD0300012BECD100E0C046074BD3
:1026680000229A73054B00221A73044B1B69180049
:10267800FFF7D0FDC046BD4602B080BD7403002000
:10268800FFFBFFFF90B583B000AF744B5B899AB234
:10269800724B1A81C046714B1B899BB25A1E91B26C
:1026A8006E4A1181002BF6D16C4B9B889BB2DAB233
:1026B8006A4B9A70694B9B889BB21B0A9BB2DAB231
:1026C800664B5A70654B1A69644B1B78DBB219006C
:1026D8001000FFF7AEFD614B1B695A6860490A405C
:1026E8005A605E4B1B6900211800FFF727FD5B4B02
:1026F8001B6902211800FFF779FD584B1B695A68BE
:10270800802189010A435A60544B00221A730AE057
:10271800524B01229A73514B1B7BDAB24F4B5B7BB6
:10272800DBB29A4208D24D4B1B691800FFF71AFD1D
:102738000300012BECD100E0C046484B00229A73FD
:10274800464B00221A73454B1A69444B5B78DBB23F
:1027580019001000FFF789FD404B00221A730AE0A8
:102768003E4B01229A733D4B1B7BDAB23B4B5B7BA2
:10277800DBB29A4208D2394B1B691800FFF7F2FC0A
:102788000300012BECD100E0C046344B00229A73C1
:10279800324B00221A73314B1A69304B9B78DBB2EB
:1027A80019001000FFF761FD2C4B1B695A68802146
:1027B800C9000A435A60294B1A69284BDB889BB227
:1027C80019001000FFF712FD244B1B695A6880217D
:1027D80089010A435A60BB1D00221A802DE01F4B55
:1027E80000221A730AE01D4B01229A731B4B1B7BB4
:1027F800DAB21A4B5B7BDBB29A4207D2174B1B69E2
:102808001800FFF7D1FC031EEDD000E0C046134BC3
:1028180000229A73114B00221A73104B1A69BB1DC0
:102828001C881000FFF716FD03001A000D4B1A55FF
:10283800BB1D1A88BB1D01321A80084BDB889BB26E
:10284800BA1D12889A42CAD3044B1B691800FFF7B5
:10285800E1FCC046BD4603B090BDC04674030020ED
:10286800FFFBFFFF8C03002080B584B000AF0E2370
:10287800FB1800221A70A24B9B889AB20C23FB18F3
:102888001A809F4BDB889AB20A23FB181A80082308
:10289800FB1800221A80BB1D00221A8024E10C219B
:1028A8007B181B889BB2DB099BB201339BB2DB010F
:1028B8009AB208203B181A803B181B889BB2DAB2E0
:1028C8007B181B889BB2DBB2D31ADAB20E217B18B5
:1028D8001A707B181B78DBB21A000A203B181B8879
:1028E8009BB29A4205D93B181B889BB2DAB27B1877
:1028F8001A700E23FB181B78DAB20A217B181B8882
:102908009BB29B1A9AB27B181A807D4B5B899AB24C
:102918007B4B1A81C0467A4B1B899BB25A1E91B2D7
:10292800774A1181002BF6D10C217B181B889BB2AA
:10293800DAB2734B9A707B181B889BB21B0A9BB246
:10294800DAB26F4B5A706E4B1A696D4B1B78DBB25B
:1029580019001000FFF76DFC694B1B695A6869493B
:102968000A405A60664B1B6900211800FFF7E6FB16
:10297800634B1A690E23FB181B78DBB2023319006C
:102988001000FFF733FC5E4B1B695A6880218901F0
:102998000A435A605A4B00221A730AE0584B012224
:1029A8009A73574B1B7BDAB2554B5B7BDBB29A426F
:1029B80008D2534B1B691800FFF7E5FB0300012BF6
:1029C800ECD100E0C0464E4B00229A734C4B0022DB
:1029D8001A734B4B1A694A4B5B78DBB2190010002B
:1029E800FFF743FC464B00221A730AE0444B0122CE
:1029F8009A73434B1B7BDAB2414B5B7BDBB29A4247
:102A080008D23F4B1B691800FFF7BDFB0300012BE1
:102A1800ECD100E0C0463A4B00229A73384B0022B2
:102A28001A73374B1A69364B9B78DBB219001000C2
:102A3800FFF71BFC0F23FB1800221A702AE0304B0B
:102A480000221A7302E02E4B01229A732C4B1B6949
:102A58001800FFF787FB0300012BF4D1284B002255
:102A68009A73274B00221A73254B1869BB1D1B88C4
:102A78009BB25A1C91B2BA1D11801A00224B9B5C62
:102A8800DBB21900FFF7F1FB0F217B181A787B18CE
:102A980001321A700E23FB181B78DBB20F22BA180A
:102AA80012789A42CBD3164B00221A7302E0144BC9
:102AB80001229A73124B1B691800FFF753FB03009E
:102AC800012BF4D10E4B00229A730D4B00221A737E
:102AD8000B4B1B691800FFF79DFB0823FB181B888D
:102AE8009AB20C23FB181A800A23FB181B889BB286
:102AF800002B00D0D3E6C046C046BD4604B080BD1A
:102B080074030020FFFBFFFFF000002080B582B0B7
:102B180000AF786039607B683A689A61C046BD4604
:102B280002B080BD80B582B000AF786039607B6844
:102B38003A689A62C046BD4602B080BD80B582B090
:102B480000AF7860064B7A681A60C046044B1B6871
:102B5800002BFBD1C046C046BD4602B080BDC04672
:102B68008C04002080B500AF054B1B68002B04D0F7
:102B7800034B1B685A1E024B1A60C046BD4680BDF7
:102B88008C04002080B500AF0021012000F0B0F8CF
:102B98000220FFF7D3FFC046BD4680BD80B582B096
:102BA80000AF0200FB1D1A70BB1D0A1C1A70BB1D6A
:102BB8001A78BB1D013A1A70FB1D1B78012B02D035
:102BC800022B0ED01BE0BB1DBA1D12788021494292
:102BD8000A431A70BB1D1B780021180000F088F802
:102BE8000DE0BB1DBA1D1278402149420A431A70F4
:102BF800BB1D1B780021180000F07AF8C046C046BB
:102C0800BD4602B080BD80B500AF00210C2000F0A9
:102C18006FF80220FFF792FFC046BD4680BD90B511
:102C280087B000AF786008001100FB1C021C1A7006
:102C3800BB1C0A1C1A7001237B6100233B6108E05E
:102C48007A6913009B009B185B007B613B69013329
:102C58003B61BB1C1B783A699A42F1DB002178681A
:102C6800FDF7D2FB031E09D001212D2000F040F80A
:102C78007B688022120653407B6003E001212020FC
:102C880000F036F87868FEF773F90300FB60FB1C68
:102C980000229A56FB681100180000F01EF9012165
:102CA8002E2000F025F8F868FEF782F9031C191C9D
:102CB8007868FDF7F9FE031C1C1C7869FEF7C8F953
:102CC800031C191C201CFDF795FD031C181CFEF79E
:102CD8004FF90300FB60BB1C00229A56FB681100E9
:102CE800180000F0FAF8C046BD4607B090BD0000D5
:102CF80080B584B000AF0200FB1D1A70BB1D0A1C12
:102D08001A70FB1D1B781B09DAB20E23FB181A80F8
:102D1800FB1D1B789AB20C23FB180F210A401A805E
:102D2800BB1D1B78002B05D11E4B02211800FFF795
:102D3800F9FE04E01B4B02211800FFF7E7FE022012
:102D4800FFF7FCFE174B04211800FFF7DFFE0E23E8
:102D5800FB181B88180000F02FF90220FFF7EEFE81
:102D6800104B04211800FFF7DDFE0220FFF7E6FEF6
:102D78000C4B04211800FFF7C9FE0C23FB181B8815
:102D8800180000F019F90220FFF7D8FE054B0421BE
:102D98001800FFF7C7FE0A20FFF7D0FEC046BD4661
:102DA80004B080BD000C005090B585B000AF0200A3
:102DB800FB1D1A701E20FFF7C1FE254B04211800C9
:102DC800FFF7A4FE224B02211800FFF7ABFE0021FB
:102DD8003320FFF78DFF0420FFF7B0FE00213220DB
:102DE800FFF786FF0420FFF7A9FE00212820FFF740
:102DF8007FFF00210C20FFF77BFF00210620FFF753
:102E080077FFC820FFF79AFEFFF7BCFE002140209D
:102E1800FFF76EFF0F23FB1800221A700DE00F2436
:102E28003B191B780B4AD35C01211800FFF760FFA0
:102E38003B191A783B1901321A700F23FB181B78BB
:102E48003F2BECD9C046C046BD4605B090BDC04634
:102E5800000C00501C02002080B584B000AF7860E0
:102E680032E07B681B78252B25D17B6801337B609A
:102E78007B681B78303BDAB20F217B181A700A0086
:102E8800BB181B787F2B0BD8BB181B785BB2072BA2
:102E980006DCBB181B7801211800FFF729FF10E09A
:102EA80001212520FFF724FF7B681B7801211800EA
:102EB800FFF71EFF05E07B681B7801211800FFF76C
:102EC80017FF7B6801337B607B681B78002BC8D1B8
:102ED800C046C046BD4604B080BD80B586B000AFD0
:102EE80078600A00FB1C1A700823FB1818000523D9
:102EF8001A00002106F068F804237B6100233B6177
:102F08007B68002B02DA7B685B427B607B68002B66
:102F180020D1FB1C1B785BB2002B1BDC012130206D
:102F2800FFF7E6FE44E07B680A211800FDF754FA33
:102F38000B00D9B20823FA187B69D3180A1C1A7037
:102F48007B680A211800FDF761F903007B607B6943
:102F5800013B7B617B68002BE5D1FB1C1B785BB2D6
:102F680001330BD102E03B6901333B610823FA18B6
:102F78003B69D3181B78002BF5D005E0FB1C1B78A8
:102F88005BB20522D31A3B613B697B610DE00823E4
:102F9800FA187B69D3181B783033DBB2012118008B
:102FA800FFF7A6FE7B6901337B617B69042BEEDDAD
:102FB800BD4606B080BD000080B582B000AF0200FB
:102FC800BB1D1A80BB1D1B880122134006D0234B52
:102FD8005A69224B08210A435A6105E01F4B5A6976
:102FE8001E4B08218A435A61BB1D1B8802221340CD
:102FF80006D01B4B5A691A4B08210A435A6105E04F
:10300800174B5A69164B08218A435A61BB1D1B8806
:103018000422134006D0124B5A69114B10210A435F
:103028005A6105E00E4B5A690D4B10218A435A61CB
:10303800BB1D1B880822134006D0094B5A69084B50
:1030480020210A435A6105E0054B5A69044B2021A7
:103058008A435A61C046BD4602B080BD000C00508C
:103068000004005080B500AF1F4B1B78102B34D8DC
:103078009A001E4BD3181B689F4600F039F830E0C1
:1030880003F084F92DE000F0B9F82AE000F086F9A1
:1030980027E000F0BDF924E000F078FA21E000F024
:1030A80007FB1EE003F01CFA1BE000F0B7FB18E07A
:1030B80000F052FC15E000F0C3FC12E000F0F8FC50
:1030C8000FE000F079FD0CE000F0AEFD09E000F043
:1030D800EBFE06E000F046FF03E0034B00221A7007
:1030E800C046C046BD4680BD90040020CC9800086C
:1030F80080B500AF3C4B5B68DB07DB0FDBB2012B15
:1031080009D1394B0122DA80FFF73CFD364B1A7999
:1031180001218A431A71344B5B68DB07DB0FDBB292
:10312800002B5DD1314B1B68DB03DB0FDBB2012BBE
:103138001FD12D4BDB881BB29BB201339BB21AB255
:10314800294BDA80284BDB881BB21A00264B9B8A56
:103158009BB29A4207DD264B0E221A70224B1A792F
:1031680001210A431A71214B9A7801218A439A70E6
:1031780034E0204B1B68DB03DB0FDBB2012B19D1DA
:10318800194BDB881BB29BB2013B9BB21AB2164BA0
:10319800DA80154BDB881BB2002B05DC124B9B8AAF
:1031A8009BB21AB2104BDA80124B9A7801218A43EB
:1031B8009A7013E0104B1B68DB03DB0FDBB2012BAB
:1031C8000CD10B4B03221A70074B1A7901210A43C1
:1031D8001A71094B9A7801218A439A70FDF7B4FF56
:1031E800C046BD4680BDC04694040020E4040020CB
:1031F80090040020E8040020F404002080B500AF0B
:10320800604B5B68DB07DB0FDBB2012B09D1FFF7F3
:10321800B9FC5C4B00221A815A4B1A7901218A4366
:103228001A71584B5B68DB07DB0FDBB2002B00D051
:10323800A5E0554B1B68DB03DB0FDBB2012B1AD172
:10324800504B1B891BB29BB201339BB21AB24D4B38
:103258001A814C4B1B891BB21A004A4BDB8A9BB262
:103268009A4202DD474B00221A81474B9A78012186
:103278008A439A7081E0454B1B68DB03DB0FDBB2A6
:10328800012B19D13F4B1B891BB29BB2013B9BB24F
:103298001AB23C4B1A813B4B1B891BB2002B05DA37
:1032A800384BDB8A9BB21AB2364B1A81374B9A7865
:1032B80001218A439A7060E0354B1B689B03DB0F42
:1032C800DBB2012B45D12F4B1B891BB2002B08D138
:1032D800304B04221A702B4B1A7901210A431A71B8
:1032E80031E0284B1B891BB2012B08D1294B062240
:1032F8001A70244B1A7901210A431A7123E0214BD1
:103308001B891BB2022B08D1224B0A221A701D4BB3
:103318001A7901210A431A7115E01A4B1B891BB24D
:10332800032B08D11B4B0D221A70164B1A79012159
:103338000A431A7107E0174B0F221A70114B1A79BA
:1033480001210A431A71124B9A7802218A439A7012
:1033580013E0114B1B68DB03DB0FDBB2012B0CD135
:103368000C4B00221A70074B1A7901210A431A7173
:10337800094B9A7801218A439A70FEF777F9C0467B
:10338800BD4680BD94040020E4040020E804002029
:10339800F004002090040020F404002080B500AF61
:1033A800184B5B68DB07DB0FDBB2012B09D1FFF79A
:1033B800E9FB144B00225A81124B1A7901218A43E6
:1033C8001A71104B5B68DB07DB0FDBB2002B15D1E2
:1033D8000D4B1B68DB03DB0FDBB2012B0CD10B4B56
:1033E80002221A70084B9A7801218A439A70054B79
:1033F8001A7901210A431A71FEF762F9C046BD46DF
:1034080080BDC04694040020F404002090040020ED
:1034180080B500AF544B5B68DB07DB0FDBB2012BD9
:1034280009D1FFF7AFFB504B01229A814E4B1A7915
:1034380001218A431A714C4B5B68DB07DB0FDBB257
:10344800002B00D08DE0494B1B68DB03DB0FDBB2A0
:10345800012B15D1444B9B891BB21A00444B5200D7
:10346800D35A9BB2404A928912B20A3399B2404B5E
:103478005200D1523D4B9A7801218A439A705FE0FD
:103488003C4B1B68DB03DB0FDBB2012B15D1364B42
:103498009B891BB21A00364B5200D35A9BB2324A50
:1034A800928912B20A3B99B2314B5200D152314B38
:1034B8009A7801218A439A7042E02F4B1B685B037C
:1034C800DB0FDBB2012B05D12B4B9A7804218A4301
:1034D8009A7035E0294B1B685B03DB0FDBB2012BCD
:1034E8001AD1214B9B891BB29BB201339BB21AB2F2
:1034F8001D4B9A811C4B9B891BB21A001A4B5B8B84
:103508009BB29A4202DD184B01229A811B4B9A7892
:1035180004218A439A7013E0194B1B68DB03DB0F05
:10352800DBB2012B0CD1174B05221A700E4B1A79FE
:1035380001210A431A71124B9A7801218A439A7021
:10354800094B9B891BB21A00074B9B891BB21800B9
:10355800074B5200D35A99B20B4B4200D152FEF797
:10356800CFF8C046BD4680BD94040020E404002086
:1035780018000020E8040020EC040020F0040020DB
:10358800F4040020900400203000002080B500AF33
:10359800244B5B68DB07DB0FDBB2002B08D0FFF79F
:1035A800F1FA03F047F91F4B1A7901218A431A717E
:1035B8001C4B5B68DB07DB0FDBB2002B2ED11A4BF1
:1035C8001B685B07DB0FDBB2012B27D100F034F857
:1035D80003F082F9154B1800FFF73EFC124B1B68ED
:1035E8001B07DB0FDBB2012B0DD1114B00221A7028
:1035F8000D4B1A7808218A431A700A4B1A7901214F
:103608008A431A710AE00A4B10221A70054B1A797C
:1036180001210A431A71074B01229A60C046BD4630
:1036280080BDC04694040020F8040020E091000802
:1036380090040020FC04002080B582B000AF012374
:103648007B6027E0174B7A685200D35A9BB2002B55
:103658001DD0154B7A685200D35A9BB21900134BF0
:103668007A685200D35A9BB24B433B600D4B7A6841
:103678005200D35A9BB219003868FCF73DFD03008D
:103688003B603B6899B2084B7A685200D1527B681C
:1036980001337B607B680A2BD4DDC046C046BD463B
:1036A80002B080BD0000002030000020180000207B
:1036B80080B500AF504B5B68DB07DB0FDBB2012B3B
:1036C80009D1FFF75FFA4C4B0122DA814A4B1A798C
:1036D80001218A431A71484B5B68DB07DB0FDBB2B9
:1036E800002B00D085E0454B1B68DB03DB0FDBB20A
:1036F800012B15D1404BDB891BB21A00404B5200FD
:10370800D35A9BB23C4AD28912B2023399B23C4B8B
:103718005200D152394B9A7801218A439A7057E066
:10372800384B1B68DB03DB0FDBB2012B15D1324BA7
:10373800DB891BB21A00324B5200D35A9BB22E4A75
:10374800D28912B2023B99B22D4B5200D1522D4B65
:103758009A7801218A439A703AE02B4B1B685B03E5
:10376800DB0FDBB2012B1AD1234BDB891BB29BB2D7
:1037780001339BB21AB2204BDA811F4BDB891BB293
:103788001A001D4B9B8B9BB29A4202DD1A4B0122F9
:10379800DA811D4B9A7804218A439A7018E01B4BF2
:1037A8001B68DB03DB0FDBB2012B11D1184B08229E
:1037B8001A70184B1A7802210A431A700E4B1A799C
:1037C80001210A431A71114B9A7801218A439A7090
:1037D800094BDB891BB21A00074BDB891BB21800A7
:1037E800074B5200D35A99B20B4B4200D152FEF705
:1037F8002BFAC046BD4680BD94040020E404002096
:103808009C000020E8040020F0040020F4040020BC
:10381800900400206C0300201003002080B584B0C1
:1038280000AF474B5B68DB07DB0FDBB2012B06D130
:10383800FFF7A8F9424B1A7901218A431A71404BC4
:103848005B68DB07DB0FDBB2002B00D074E0FEF710
:103858004DFAFEF7CBFBFA239B001800FFF76EF931
:10386800384B1B68DB06DB0FDBB2002B53D1364B22
:103878001B78DBB21A00354B1A80FB1D01221A7027
:103888000123FB6021E0304AFB68D3181B78DBB2C8
:103898001AB2FB6801332C49CB5CDBB21BB21B02AA
:1038A8001BB2134319B2FB1D1B78DBB21A0089B295
:1038B800264B5200D152FB1D1B78DBB20133DAB222
:1038C800FB1D1A70FB680233FB60FB684D2BDADDC9
:1038D8001D4B4F229B5CDBB219001C4B50229952A6
:1038E8000023BB600BE0194BBA685200D35A99B257
:1038F800174BBA685200D152BB680133BB60BB6832
:10390800282BF0DD134B09221A700D4B1A7901216F
:103918000A431A7110E00B4B1B68DB06DB0FDBB2A6
:10392800012B09D10B4B06221A70054B1A7901217C
:103938000A431A71FFF726F9C046BD4604B080BD98
:10394800940400206C0300208C0300204800002011
:103958009C0000209004002080B582B000AF334B5B
:103968005B68DB07DB0FDBB2012B06D1FFF70AF937
:103978002E4B1A7901218A431A712C4B5B68DB079D
:10398800DB0FDBB2002B4DD1294B1B889BB2DAB27F
:10399800284B1A70FB1C01221A7001237B6023E05C
:1039A800FB1C1B78DBB21A00214B5200D35A9BB286
:1039B800D9B2204A7B68D3180A1C1A70FB1C1B78E2
:1039C800DBB21A001A4B5200D35A7B680133194AEA
:1039D8000021D154FB1C1B78DBB20133DAB2FB1C8B
:1039E8001A707B6802337B607B684E2BD8DD114BE5
:1039F8004F21180003F02EFA030019000D4B4F2237
:103A08009954FEF735FBFEF795F90B4B07221A7010
:103A18000A4B1A7801210A431A70044B1A790121BA
:103A28000A431A71C046BD4602B080BD9404002006
:103A380010030020F0000020900400206C030020F8
:103A480080B500AF174B5B68DB07DB0FDBB2012BE0
:103A580008D1FFF797F803F00BF8124B1A790121F8
:103A68008A431A710F4B5B68DB07DB0FDBB2002B55
:103A780015D10D4B1B68DB06DB0FDBB2012B0ED11A
:103A8800FEF774F9094B00221A70074B1A781021B7
:103A98008A431A70034B1A7901210A431A71C046E6
:103AA800BD4680BD94040020F80400209004002046
:103AB80080B500AF3A4B5B68DB07DB0FDBB2012B4D
:103AC80028D1FFF75FF86420FEF70AFC03001A000C
:103AD800344B5A70334B5B78DBB21F2B10D9324B07
:103AE8001A7804210A431A70FEF7E0FA2D4B0022D7
:103AF8005A702C4B5B78DBB219006420FEF7D6FCB9
:103B0800274B1A7901218A431A71274B1A78082101
:103B18000A431A70224B5B68DB07DB0FDBB2002B12
:103B28003BD1224BDB785BB2DAB2214B1A701F4BC8
:103B38001B795BB2DAB21E4B5A701C4B5B795BB2D5
:103B4800DAB21B4B9A701A4B0721180003F082F95E
:103B580003001A00164BDA71FEF7CAFA124B1B68FB
:103B68001B07DB0FDBB2002B17D10E4B5B78DBB2E8
:103B78000133DAB20B4B5A700A4B5B78DBB219008F
:103B88006420FEF793FCFEF7E5F80A4B0C221A7046
:103B9800034B1A7901210A431A71C046BD4680BDFC
:103BA80094040020700300206C03002064030020AC
:103BB800F00000209004002080B500AF174B5B6830
:103BC800DB07DB0FDBB2012B08D1FEF7DBFF134B62
:103BD8001A7901218A431A7102F04AFF0F4B5B6878
:103BE800DB07DB0FDBB2002B15D10D4B1B68DB06A7
:103BF800DB0FDBB2012B0ED1FEF7B8F8094B002220
:103C08001A70074B1A7810218A431A70034B1A79D5
:103C180001210A431A71C046BD4680BD94040020A4
:103C2800F80400209004002080B500AF964B5B6834
:103C3800DB07DB0FDBB2012B2FD1FEF7A3FF01F06F
:103C4800F1FE924B1B78DBB25AB2914B1A708F4B34
:103C58005B78DBB25AB28E4B5A708C4B9B78DBB2D6
:103C68005AB28B4B9A70894B1B79DBB25AB2884B8C
:103C7800DA70864B5B79DBB25AB2854B1A71834B8B
:103C8800DB889BB25AB2824B5A717F4B01225A820F
:103C98007D4B1A7901218A431A717B4B5B68DB07DC
:103CA800DB0FDBB2002B00D0EBE07A4B1B68DB03A9
:103CB800DB0FDBB2012B42D1734B5B8A1BB21A00BC
:103CC800734B9B5C5BB2DBB20133D9B26E4B5B8A40
:103CD8001BB21A0049B26E4B99546D4B5B785BB2BC
:103CE8003B2B03DD6A4B00225A7022E0684B9B781D
:103CF8005BB2172B03DD664B00229A7019E0644B08
:103D0800DB785BB21F2B03DD614B0122DA7010E018
:103D18005F4B1B795BB20C2B03DD5D4B01221A71E3
:103D280007E05B4B5B795BB2632B02DD584B0022EB
:103D38005A71584B9A7801218A439A709FE0564BE2
:103D48001B68DB03DB0FDBB2012B42D14E4B5B8AD6
:103D58001BB21A004E4B9B5C5BB2DBB2013BD9B283
:103D6800494B5B8A1BB21A0049B2494B9954484BDC
:103D78005B785BB2002B03DA454B3B225A7022E09A
:103D8800434B9B785BB2002B03DA414B17229A70A6
:103D980019E03F4BDB785BB2002B03DC3C4B1F2266
:103DA800DA7010E03A4B1B795BB2002B03DC384B1E
:103DB8000C221A7107E0364B5B795BB2002B02DAF2
:103DC800334B63225A71344B9A7801218A439A7093
:103DD80055E0324B1B685B03DB0FDBB2012B1AD1BA
:103DE800294B5B8A1BB29BB201339BB21AB2264B9A
:103DF8005A82254B5B8A1BB21A00234B1B8C9BB241
:103E08009A4202DD204B01225A82244B9A780421DF
:103E18008A439A7033E0224B1B68DB03DB0FDBB26B
:103E2800012B2CD11A4B5B785BB2DAB2174B5A7064
:103E3800174B9B785BB2DAB2144B9A70144BDB7851
:103E48005BB2DAB2114B1A71114B1B795BB2DAB261
:103E58000E4B5A710E4B5B795BB29AB20B4BDA8000
:103E680001F032FF0F4B0E221A70074B1A7901210D
:103E78000A431A710A4B9A7801218A439A70FDF70E
:103E880085FFC046BD4680BD94040020DC040020A8
:103E980064030020E4040020E8040020F00400206B
:103EA800F40400209004002080B500AF294B5B6823
:103EB800DB07DB0FDBB2012B2FD1FEF763FE01F02E
:103EC800B1FD254B1B78DBB25AB2244B1A70224B3A
:103ED8005B78DBB25AB2214B5A701F4B9B78DBB22E
:103EE8005AB21E4B9A701C4B1B79DBB25AB21B4B51
:103EF800DA70194B5B79DBB25AB2184B1A71164B50
:103F0800DB889BB25AB2154B5A71124B00225A8267
:103F1800104B1A7901218A431A710E4B5B68DB0733
:103F2800DB0FDBB2002B11D1FDF76CFFFA23DB00AE
:103F38001800FEF703FE074B0122DA80084B002227
:103F48001A70044B1A7901210A431A71C046BD46FA
:103F580080BDC04694040020DC04002064030020D7
:103F68009004002080B500AF244B5B68DB07DB0FB3
:103F7800DBB2012B06D1FEF705FE204B1A79012191
:103F88008A431A711D4B5B68DB07DB0FDBB2002B22
:103F980030D1FDF799FF1A4B1B68012B0BD1194B38
:103FA80001221A70164B00221A60144B1A7901214B
:103FB8000A431A711EE0124B5B68012B0BD1114B9F
:103FC80009221A700E4B00225A600C4B1A790121F3
:103FD8000A431A710EE00A4B9B68012B0AD1094B60
:103FE80005221A70064B00229A60044B1A790121A7
:103FF8000A431A71C046BD4680BDC04694040020DD
:10400800FC0400209004002080B500AF0B4B1A7907
:1040180001210A431A71094B09225A83074B0B22C3
:104028009A82064B10229A83044B0422DA82034BAD
:1040380005221A84C046BD4680BDC04694040020AF
:1040480080B584B000AF7860074B596B064B7A682F
:104058000A435A63044B5B6B7A681340FB60FB6846
:10406800C046BD4604B080BD0010024080B582B095
:1040780000AF786039607B683A689A62C046BD468E
:1040880002B080BD80B586B000AF3B001800182391
:104098001A00002104F098FF0420FFF7D1FF202028
:1040A800FFF7CEFF0120FFF7CBFF0220FFF7C8FF85
:1040B8000820FFF7C5FF80239B01D34A1900100091
:1040C800FFF7D4FFA023DB0510211800FFF7CEFF70
:1040D80080235A01A023DB0511001800FFF7C6FF53
:1040E80080231A02A023DB0511001800FFF7BEFF8A
:1040F800C64B01211800FFF7B9FFC44B0221180075
:10410800FFF7B4FFC14B04211800FFF7AFFFBF4B07
:1041180008211800FFF7AAFFBD4B08211800FFF778
:10412800A5FFBB4B10211800FFF7A0FFB84B2021BB
:104138001800FFF79BFF80235B00B54A19001000A9
:10414800FFF794FF80239B00B14A19001000FFF786
:104158008DFF3B00802292011A603B0001225A60C9
:104168003B0000229A603B000022DA603B000022FC
:104178001A613B00A44A1900100003F0B9FE3B0085
:1041880010221A603B0001225A603B0000229A600C
:104198003B000022DA603B0000221A613A00A023AB
:1041A800DB051100180003F0A3FE3B0002221A6091
:1041B8003B0000225A603B0000221A613B00944AEF
:1041C8001900100003F094FE3B0004221A603B0023
:1041D80000225A603B0000221A613B008C4A1900F9
:1041E800100003F085FE3B008022D2001A603B00DD
:1041F80000225A603B0000221A613B00844A1900E1
:10420800100003F075FE3B00802212011A603B008B
:1042180000225A603B0000221A613B007C4A1900C8
:10422800100003F065FE3B00802252011A603B003B
:1042380001225A603B0000229A603B000022DA60AB
:104248003B0000221A613A00A023DB051100180088
:1042580003F04EFE3B00802212021A603B0001224E
:104268005A603B0000229A603B000022DA603B0063
:1042780000221A613A00A023DB051100180003F0A0
:1042880037FE3B0001221A603B0001225A603B00C6
:1042980000229A603B000022DA603B0000221A618B
:1042A8003B005A4A1900100003F022FE3B0002228C
:1042B8001A603B0001225A603B0000229A603B00D2
:1042C8000022DA603B0000221A613B004F4A1900C5
:1042D800100003F00DFE3B0004221A603B0001228F
:1042E8005A603B0000229A603B000022DA603B00E3
:1042F80000221A613B00454A1900100003F0F8FD3E
:104308003B0008221A603B0001225A603B00002251
:104318009A603B000022DA603B0000221A613B00F1
:104328003A4A1900100003F0E3FD3B0008221A6026
:104338003B0001225A603B0000229A603B000022A9
:10434800DA603B0000221A613B00314A1900100074
:1043580003F0CEFD3B0010221A603B0001225A6098
:104368003B0000229A603B000022DA603B000022FA
:104378001A613B00264A1900100003F0B9FD3B0002
:1043880020221A603B0001225A603B0000229A60FA
:104398003B000022DA603B0000221A613B001C4A05
:1043A8001900100003F0A4FD3B00802252001A609F
:1043B8003B0001225A603B0000229A603B00002229
:1043C800DA603B0000221A613B00114A1900100014
:1043D80003F08EFD3B00802292001A603B00012210
:1043E8005A603B0000229A603B000022DA603B00E2
:1043F80000221A613B00064A1900100003F078FDFC
:10440800C046BD4606B080BD00080050000C0050F4
:104418000004005080B582B000AF78607B681B68EC
:10442800034A1A407B681A60C046BD4602B080BD88
:10443800FFFFFDFF80B582B000AF78607B681B6826
:10444800034A1A407B681A60C046BD4602B080BD68
:10445800FFFFF7FF80B584B000AFF860B9607A60FD
:10446800FB68DB68054A1A40B9687B680B431A4346
:10447800FB68DA60C046BD4604B080BD01F8FFFFA6
:1044880080B582B000AF78607B68DB68034A1A4069
:104498007B68DA60C046BD4602B080BDFF7FFFFF83
:1044A80080B582B000AF78607B685B688022920438
:1044B8001A437B685A60C046BD4602B080BD000002
:1044C80080B582B000AF7860084B5B6D7A68120CDB
:1044D800D2431A4011007B681B041A0C034B0A4391
:1044E8005A65C046BD4602B080BDC04600100240B5
:1044F80080B584B000AF7860074BD96B064B7A68FB
:104508000A43DA63044BDB6B7A681340FB60FB6891
:10451800C046BD4604B080BD0010024080B584B0DE
:1045280000AF7860074B596B064B7A680A435A63A9
:10453800044B5B6B7A681340FB60FB68C046BD4662
:1045480004B080BD0010024090B58FB000AF1C24AD
:104558003B1918001C231A00002104F035FD3B1DEF
:10456800180018231A00002104F02EFDC0239B0513
:104578001800FFF7A5FF0220FFF7D0FF3B1D4022E0
:104588001A603B1D02225A603B1D00229A603B1DA7
:104598000122DA603B1D00221A613B1D06225A6186
:1045A8003B1D2C4A1900100003F0A2FC3B1D802281
:1045B8001A603B1D02225A603B1D00229A603B1D77
:1045C8000122DA603B1D00221A613B1D06225A6156
:1045D8003B1D204A1900100003F08AFC80239B032E
:1045E8001800FFF785FF21007B1800221A607B184E
:1045F800194A5A607B1800229A607B180022DA60F8
:104608007B1800221A617B1800225A617B1800224D
:104618009A617B18114A1900100003F061FD0F4BD5
:104628001800FFF73DFF0D4B002200211800FFF78F
:1046380011FF0A4B1800FFF723FF084B1800FFF77C
:10464800F9FE064B1800FFF7E5FEC046BD460FB061
:1046580090BDC04600040050B57DB1100054004024
:1046680090B583B000AF02003960FB1D1A70FB1DC6
:104678001B787F2B28D82F4AFB1D1B785BB29B0821
:10468800C0339B009B58FA1D1278110003220A4080
:10469800D200FF2191400A00D2431A4011003B6822
:1046A8009B01FF221A40FB1D1B78180003230340BF
:1046B800DB009A401F48FB1D1B785BB29B080A432E
:1046C800C0339B001A5031E01B4AFB1D1B781900B0
:1046D8000F230B40083B9B0806339B00D318043379
:1046E8001B68FA1D1278110003220A40D200FF212C
:1046F80091400A00D2431A4011003B689B01FF22F7
:104708001A40FB1D1B78180003230340DB009A4066
:104718000948FB1D1B781C000F232340083B9B08FE
:104728000A4306339B00C31804331A60C046BD46CB
:1047380003B090BD00E100E000ED00E080B500AFFF
:10474800044B1A68034B802149000A431A60C0468B
:10475800BD4680BD0010024080B500AF074B1A6807
:104768008023DB001A408023DB009A4201D1012319
:1047780000E000231800BD4680BDC046001002407E
:1047880080B500AF044B1A6E034B01210A431A6629
:10479800C046BD4680BDC0460010024080B500AF8F
:1047A800054B1B6E02221340022B01D1012300E0AE
:1047B80000231800BD4680BD0010024080B582B0BD
:1047C80000AF7860064B9B68072293431900044B9F
:1047D8007A680A439A60C046BD4602B080BDC046AA
:1047E8000010024080B500AF034B9B68382213408D
:1047F8001800BD4680BDC0460010024080B582B09A
:1048080000AF7860064B9B68064A13401900044BBA
:104818007A680A439A60C046BD4602B080BDC04669
:1048280000100240FFF0FFFF80B582B000AF786053
:10483800064B9B68064A13401900044B7A680A43E2
:104848009A60C046BD4602B080BDC0460010024016
:10485800FF8FFFFF80B500AF044B1A68034B802120
:1048680049040A431A60C046BD4680BD0010024094
:1048780080B500AF074B1A6880239B041A40802339
:104888009B049A4201D1012300E000231800BD4691
:1048980080BDC0460010024080B584B000AFF8600B
:1048A800B9607A603B600A4BDB680A4A134019001A
:1048B800FA68BB681A437B681B021A433B681A43B1
:1048C800034B0A43DA60C046BD4604B080BDC0460B
:1048D800001002408C80FF1F80B500AF044BDA68DF
:1048E800034B802149050A43DA60C046BD4680BDB6
:1048F8000010024080B584B000AF7860074BD96BD8
:10490800064B7A680A43DA63044BDB6B7A68134018
:10491800FB60FB68C046BD4604B080BD0010024085
:1049280080B584B000AF7860074B196C064B7A6885
:104938000A431A64044B1B6C7A681340FB60FB68DB
:10494800C046BD4604B080BD0010024080B582B0AC
:1049580000AF7860064B1B68072293431900044B8D
:104968007A680A431A60C046BD4602B080BDC04698
:104978000020024080B500AF034B1B68072213409C
:104988001800BD4680BDC0460020024080B500AF7B
:10499800044B1A68034B802149000A431A60C04639
:1049A800BD4680BD0070004080B500AF0120FFF714
:1049B800B7FF80235B051800FFF79CFF01235B42CC
:1049C80003211800FFF74CFE00F07CF8FFF75AFBB4
:1049D800FFF7BAFD00F0C6FC00F068FD00F008FE25
:1049E80000F09AFE00F0EAFA00F01AF92E4BA02126
:1049F8001800FDF749FC2C4B6421180000F0E8FF73
:104A080001F0DEFAFFF700FBFDF7B2FA274BDA6890
:104A1800264B01210A43DA60244B1A68234B0121F3
:104A28000A431A600220FEF7BFF9214B01221A70CF
:104A3800204B1A7801210A431A701F4B0122DA8190
:104A48001D4B01229A811C4B0122DA8001F070FA79
:104A58001A4B1A68194B20210A431A60174B1A6817
:104A6800164B01210A431A60154B1A68144B202172
:104A78000A431A60124B1A68114B01210A431A6043
:104A8800FEF780F8FEF7BFF8FEF7ECFAFEF7BBF882
:104A98000A20FEF753F802F035F802F0BDFB03F0E8
:104AA80015F8C046F0E7C04600540040002C01400D
:104AB800900400206C03002094040020004400406F
:104AC800004C004080B500AF0220FFF73FFFC04612
:104AD800FFF750FF0300022BFAD1FFF72FFEC04665
:104AE800FFF73AFE0300012BFAD1FFF749FEC04653
:104AF800FFF754FE0300012BFAD1FFF747FF80238D
:104B08009B05082200210220FFF7C6FEFFF7A2FE40
:104B1800FFF7E2FEC046FFF7ABFE0300012BFAD118
:104B28000020FFF76BFE0220FFF748FEC046FFF7A4
:104B380059FE0300102BFAD10020FFF775FE054B34
:104B4800180004F023FA034B180004F02FFAC046AB
:104B5800BD4680BD0090D00380B582B000AF7860BC
:104B6800064BDB6D064A13401900044B7A680A436A
:104B7800DA65C046BD4602B080BDC046001002409E
:104B8800FFFCFFFF80B500AF034BDA6DC0239B002D
:104B980013401800BD4680BD0010024080B500AF2C
:104BA800044BDA6D034B802109020A43DA65C046DB
:104BB800BD4680BD0010024080B500AF044BDA6DE1
:104BC800034B802149020A43DA65C046BD4680BDD1
:104BD8000010024080B500AF044BDA6D034B044966
:104BE8000A40DA65C046BD4680BDC0460010024096
:104BF800FFFFFEFF80B584B000AF7860074BD96B2C
:104C0800064B7A680A43DA63044BDB6B7A68134015
:104C1800FB60FB68C046BD4604B080BD0010024082
:104C280080B584B000AF3B1D18000C231A0000218A
:104C380004F0CAF9FFF7A6FF020080239B009A42FE
:104C480008D0FFF7B9FFFFF7C5FF80239B001800C6
:104C5800FFF782FFFFF7A2FF8023DB001800FFF7B2
:104C6800C9FF3B1D00221A603B1D7F225A603B1D75
:104C7800FF229A603B1D044A1900100003F05EFDF4
:104C8800C046BD4604B080BD0028004080B500AFD6
:104C9800C046FDE780B500AFC046FDE780B500AF70
:104CA800C046BD4680BD80B500AFC046BD4680BD8C
:104CB80080B500AFC046BD4680BD000080B500AFDE
:104CC800FDF750FF01F0A4F92E4B1B889BB201336E
:104CD8009AB22C4B1A802B4B1B889BB22A4A9342C0
:104CE80020D92A4B1B78002B1CD1264BDB881BB202
:104CF8009BB201339BB21AB2224BDA80214B0022BD
:104D08001A80204BDB881BB21A001E4B9B8A9BB271
:104D18009A4207DD1D4B0E221A701A4B1A7901218F
:104D28000A431A71194B1B78002B11D1154BDB8CD8
:104D38009BB201339AB2134BDA84124BDB8C9BB2D1
:104D4800134A934204D90F4B0022DA8401F0A0FBE6
:104D580002F02AFA02F082FE0E4B1B685A1E0D4B17
:104D68001A600C4B1B68002B02DC0A4B00221A60ED
:104D7800094B1A69084B01218A431A61C046BD468E
:104D880080BDC04694040020B80B000090040020A9
:104D98000F27000008050020002C014080B500AF57
:104DA800C046BD4680BD80B500AF02F081F8C04660
:104DB800BD4680BD80B500AF02F008FDC046BD46C7
:104DC80080BD80B500AFC046BD4680BD80B582B00D
:104DD80000AF0200FB1D1A70FB1D1B787F2B09D842
:104DE800FB1D1B781A001F231A40044B0121914018
:104DF8000A001A60C046BD4602B080BD00E100E06E
:104E080090B583B000AF02003960FB1D1A70FB1D1E
:104E18001B787F2B28D82F4AFB1D1B785BB29B0879
:104E2800C0339B009B58FA1D1278110003220A40D8
:104E3800D200FF2191400A00D2431A4011003B687A
:104E48009B01FF221A40FB1D1B7818000323034017
:104E5800DB009A401F48FB1D1B785BB29B080A4386
:104E6800C0339B001A5031E01B4AFB1D1B78190008
:104E78000F230B40083B9B0806339B00D3180433D1
:104E88001B68FA1D1278110003220A40D200FF2184
:104E980091400A00D2431A4011003B689B01FF224F
:104EA8001A40FB1D1B78180003230340DB009A40BF
:104EB8000948FB1D1B781C000F232340083B9B0857
:104EC8000A4306339B00C31804331A60C046BD4624
:104ED80003B090BD00E100E000ED00E080B584B0D3
:104EE80000AF7860074B196C064B7A680A431A645E
:104EF800044B1B6C7A681340FB60FB68C046BD46D8
:104F080004B080BD0010024080B582B000AF786068
:104F18007B681B68802293431A007B681A60C0462E
:104F2800BD4602B080BD000080B582B000AF786099
:104F380039607B689B68054A1A403B681A437B685E
:104F48009A60C046BD4602B080BDC046F8BFFEFFAD
:104F580080B582B000AF786039607B685B6870228A
:104F680093431A003B681A437B685A60C046BD46A3
:104F780002B080BD80B582B000AF786039607B68D0
:104F88005B68054A1A403B681A437B685A60C0460A
:104F9800BD4602B080BDC046FFFF0FFF80B582B09E
:104FA80000AF78607B689B68802293431A007B6817
:104FB8009A60C046BD4602B080BD000080B586B08C
:104FC80000AF3B1D180014231A00002103F0FCFF5A
:104FD80080231B011800FFF781FF00210D20FFF738
:104FE8000FFF0D20FFF7F2FE3B1D3F221A803B1DED
:104FF80000225A603B1D144A9A603B1D0022DA6069
:105008003B1D00221A613B1D104A1900100003F0D5
:10501800F7FD0E4B1800FFF777FF0C4B0021180027
:10502800FFF782FF094B00211800FFF791FF074B9C
:1050380000211800FFF79EFF044B1800FFF7AEFF92
:10504800C046BD4606B080BDE7030000002C014005
:1050580080B582B000AF0200FB1D1A70FB1D1B78E3
:105068007F2B09D8FB1D1B781A001F231A40044BFD
:10507800012191400A001A60C046BD4602B080BDB9
:1050880000E100E090B583B000AF02003960FB1D7D
:105098001A70FB1D1B787F2B28D82F4AFB1D1B7805
:1050A8005BB29B08C0339B009B58FA1D1278110015
:1050B80003220A40D200FF2191400A00D2431A403D
:1050C80011003B689B01FF221A40FB1D1B7818004A
:1050D80003230340DB009A401F48FB1D1B785BB28B
:1050E8009B080A43C0339B001A5031E01B4AFB1D42
:1050F8001B7819000F230B40083B9B0806339B00C5
:10510800D31804331B68FA1D1278110003220A40D1
:10511800D200FF2191400A00D2431A4011003B6897
:105128009B01FF221A40FB1D1B7818000323034034
:10513800DB009A400948FB1D1B781C000F23234005
:10514800083B9B080A4306339B00C31804331A60C4
:10515800C046BD4603B090BD00E100E000ED00E0B0
:1051680080B582B000AF7860084B5B6D7A68120C2E
:10517800D2431A4011007B681B041A0C034B0A43E4
:105188005A65C046BD4602B080BDC0460010024008
:1051980080B584B000AF7860074BD96B064B7A684E
:1051A8000A43DA63044BDB6B7A681340FB60FB68E5
:1051B800C046BD4604B080BD0010024080B584B032
:1051C80000AF7860074B196C064B7A680A431A647B
:1051D800044B1B6C7A681340FB60FB68C046BD46F5
:1051E80004B080BD0010024080B584B000AF786084
:1051F800074B596B064B7A680A435A63044B5B6B3F
:105208007A681340FB60FB68C046BD4604B080BDA9
:105218000010024080B582B000AF78607B681B68E0
:1052280001221A437B681A60C046BD4602B080BDA1
:1052380080B582B000AF78607B681B68034A1A406B
:105248007B681A60C046BD4602B080BDFFFFFFDF25
:1052580080B586B000AF78603960EFF31083BB602B
:10526800BB687B610123FB60FB6883F31088C04641
:105278007B689B68DB00DA083B685B071A437B683E
:105288009A607B693B613B6983F31088C046C046DE
:10529800BD4606B080BD000080B586B000AF78601E
:1052A8003960EFF31083BB60BB687B610123FB604F
:1052B800FB6883F31088C0467B689B68084A1A40DD
:1052C8003B685B061A437B689A607B693B613B6974
:1052D80083F31088C046C046BD4606B080BDC046B0
:1052E800FFFFFFF180B582B000AF78607B685B6834
:1052F800074A1A407B685A607B689B682A22934356
:105308001A007B689A60C046BD4602B080BDC046A0
:10531800FFB7FFFF80B582B000AF78607B68DA69BD
:1053280080239B031A4080239B039A4201D10123C7
:1053380000E000231800BD4602B080BD80B582B0F1
:1053480000AF78607B68DA698023DB031A4080232A
:10535800DB039A4201D1012300E000231800BD4677
:1053680002B080BD90B58FB000AF18243B1918006B
:1053780020231A00002103F027FE3B001800182301
:105388001A00002103F020FEC0239B021800FFF73B
:10539800E7FE8023DB011800FFF710FF0120FFF76D
:1053A80023FF3B00802292001A603B0002225A60D1
:1053B8003B0000229A603B000022DA603B0000229A
:1053C8001A613B0001225A613A00A023DB05110053
:1053D800180002F08DFD3B008022D2001A603B00CD
:1053E80002225A603B0000229A603B000022DA60E9
:1053F8003B0000221A613B0001225A613A00A023B7
:10540800DB051100180002F073FD00211B20FFF7D7
:1054180039FE1B20FFF71CFE3B1900221A603B19BE
:10542800962292015A6021007B1800229A607B180C
:105438000022DA607B1800221A617B180C225A615C
:105448007B1800229A617B180022DA617B18164AC1
:105458001900100003F0F2FC134B00211800FFF7AD
:10546800F7FE114B00211800FFF716FF0E4B18002E
:10547800FFF7DEFE0C4B1800FFF734FF0A4B18004D
:10548800FFF7C8FEC046084B1800FFF743FF031E8E
:10549800F9D0054B1800FFF751FF031EF3D0C046A3
:1054A800C046BD460FB090BD0038014090B58FB0E2
:1054B80000AF18243B19180020231A00002103F01C
:1054C80083FD3B00180018231A00002103F07CFD1F
:1054D800C0231B031800FFF743FE80239B0218001C
:1054E800FFF756FE0120FFF77FFE3B0004221A60FB
:1054F8003B0002225A603B0000229A603B000022D7
:10550800DA603B0000221A613B0001225A613A002E
:10551800A023DB051100180002F0EAFC3B0008227A
:105528001A603B0002225A603B0000229A603B004E
:105538000022DA603B0000221A613B0001225A6116
:105548003A00A023DB051100180002F0D1FC00216D
:105558001C20FFF797FD1C20FFF77AFD3B1900225E
:105568001A603B19962292015A6021007B1800228A
:105578009A607B180022DA607B1800221A617B1877
:105588000C225A617B1800229A617B180022DA618A
:105598007B18164A1900100003F050FC134B002129
:1055A8001800FFF755FE114B00211800FFF774FE95
:1055B8000E4B1800FFF73CFE0C4B1800FFF792FE4D
:1055C8000A4B1800FFF726FEC046084B1800FFF7E5
:1055D800A1FE031EF9D0054B1800FFF7AFFE031E0E
:1055E800F3D0C046C046BD460FB090BD0044004051
:1055F80090B58FB000AF18243B19180020231A006B
:10560800002103F0E1FC3B00180018231A000021D8
:1056180003F0DAFC8023DB021800FFF7B9FD012054
:10562800FFF7E2FD0220FFF7DFFD3B0020221A60B2
:105638003B0002225A603B0000229A603B00002295
:10564800DA603B0000221A613B0004225A613A00EA
:10565800A023DB051100180002F04AFC3B000122E0
:105668001A603B0002225A603B0000229A603B000D
:105678000022DA603B0000221A613B0004225A61D2
:105688003B00234A1900100002F032FC00211D20C3
:10569800FFF7F8FC1D20FFF7DBFC3B1900221A601E
:1056A8003B19962292015A6021007B1800229A60C9
:1056B8007B180022DA607B1800221A617B180C2202
:1056C8005A617B1800229A617B180022DA617B18E4
:1056D800104A1900100003F0B1FB0E4B1800FFF739
:1056E80001FE0C4B1800FFF795FDC046094B18004A
:1056F800FFF710FE031EF9D0064B1800FFF71EFE39
:10570800031EF3D0C046C046BD460FB090BDC0468C
:10571800000400500048004090B58FB000AF182436
:105728003B19180020231A00002103F04DFC3B0010
:10573800180018231A00002103F046FC80231B03DD
:105748001800FFF725FD0120FFF74EFD3B00012261
:105758001A603B0002225A603B0000229A603B001C
:105768000022DA603B0000221A613B0004225A61E1
:105778003A00A023DB051100180002F0B9FB3B003A
:1057880002221A603B0002225A603B0000229A6003
:105798003B000022DA603B0000221A613B00042231
:1057A8005A613A00A023DB051100180002F0A0FBA3
:1057B80000211D20FFF766FC1D20FFF749FC3B195F
:1057C80000221A603B19962292015A6021007B1828
:1057D80000229A607B180022DA607B1800221A6186
:1057E8007B180C225A617B1800229A617B180022D0
:1057F800DA617B180F4A1900100003F01FFB0D4BEC
:105808001800FFF76FFD0B4B1800FFF703FDC046AC
:10581800084B1800FFF77EFD031EF9D0054B180052
:10582800FFF78CFD031EF3D0C046C046BD460FB03F
:1058380090BDC046004C004080B582B000AF786093
:1058480039607B685B68054A1A403B681A437B6885
:105858005A60C046BD4602B080BDC046FFF7FFFF94
:1058680080B582B000AF78607B689B6901221340E5
:10587800012B01D1012300E000231800BD4602B02E
:1058880080BD80B582B000AF78607B689B690222DA
:105898001340022B01D1012300E000231800BD466C
:1058A80002B080BD80B582B000AF78607B689B692C
:1058B80004221340042B01D1012300E00023180027
:1058C800BD4602B080BD000080B582B000AF7860F0
:1058D8007B685B68034A1A407B685A60C046BD46CD
:1058E80002B080BDFFFFFFFD80B582B000AF7860D9
:1058F80039607B685B68054A1A403B681B041A4399
:105908007B685A60C046BD4602B080BDFFFF00FFFD
:1059180080B582B000AF78607B685B688022D20176
:105928001A437B685A60C046BD4602B080BD80B548
:1059380082B000AF786039607B685B689B0A9A0226
:105948003B681A437B685A60C046BD4602B080BDBA
:1059580080B582B000AF78607B685B6ADBB2180004
:10596800BD4602B080BD80B582B000AF78600A0045
:10597800FB1C1A70FB1C1A787B689A62C046BD46ED
:1059880002B080BD80B586B000AFF860B9607A60BB
:105998003B607B681A04FF231B041A40BB681A4348
:1059A8003B681B021B041B0C1A433B6AFF210B407C
:1059B80013437B61FB681B6C044A1A407B691A43DA
:1059C800FB681A64C046BD4606B080BD808080FF73
:1059D80080B582B000AF78600A00FB1C1A700F4BCC
:1059E8007A689A600D4BFA1C12781A700B4B0C4AA5
:1059F8009A800A4B9B889AB2084B5A80074B002220
:105A08009A71064B0A22DA71044B9B681800FFF75B
:105A18005BFFC046BD4602B080BDC046C004002042
:105A2800E02E0000B0B586B000AF3B1D1800102373
:105A38001A00002103F0C8FAA04B9B889AB29F4B2A
:105A48005A80C0469D4B5B889BB25A1E91B29B4AB6
:105A58005180002BF6D1994B9A68984B1B78DBB292
:105A680019001000FFF763FF944B9B680021180092
:105A7800FFF7E2FE914B9B685A68904B9B68802128
:105A8800C9000A435A608D4B9B6810211800FFF724
:105A98002BFF8A4B9B685A68884B9B688021890139
:105AA8000A435A601623FB1800221A8028E0834B09
:105AB80000229A7107E0814B9B79DAB27F4BDB7940
:105AC800DBB29A4207D27D4B9B681800FFF7EAFECB
